:020000040000FA
:100000000C944E050C947F050C947F050C947F0591
:100010000C947F050C947F050C947F050C947F0550
:100020000C947F050C947F050C947F050C947F0540
:100030000C947F050C947F050C947F050C947F0530
:100040000C947F050C947F050C947F050C947F0520
:100050000C947F050C947F050C947F050C9455112E
:100060000C947F050C94C9110C949F110C947F057E
:100070000C947F050C947F050C947F050C947F05F0
:100080000C947F050C947F050C947F050C947F05E0
:100090000C947F050C947F050C947F050C94FF1144
:1000A0000C947F050C947F050C947F050C947F05C0
:1000B0000C947F050C947F050C947F050C947F05B0
:1000C0000C947F050C947F050C947F050C947F05A0
:1000D0000C947F050C947F050C947F050C947F0590
:1000E0000C947F050C94470D0C94D7050C94DD05FA
:1000F0000C948E0D0C94C5060C94380D0C94C4060B
:100100000C945A0D0C94EF050C945B070C94B605F7
:100110000C94610D0C9401070C94BD0D0C94C30656
:100120000C94F5050C94D0050C944F130C94D40545
:100130000C94FD050C94F9050C9415070C94C80556
:100140000C94370D0C94C3070C94B1050C94030662
:100150000C94E7050C94CC050C94F2060C94E10584
:100160000C94EB050C9407060C9423070000200068
:100170002300260029002C002F003200000100007F
:10018000030106010901005EBCE2613FDD83C29C00
:100190007E20A3FD1F41009D23BE46DB65F88C1128
:1001A000AF32CA57E9744E4F524D414C3A20004588
:1001B0004C4556415445443A200043524954494322
:1001C000414C3A20005A4F4E45204120435552524F
:1001D000454E54204149522048554D4944495459AF
:1001E0003A20004E4F524D414C3A2000454C455666
:1001F000415445443A2000435249544943414C3A02
:1002000020005A4F4E4520412043555252454E54EE
:10021000204149522054454D504552415455524574
:100220003A2000454C4556415445443A20004E4F33
:10023000524D414C3A2000435249544943414C3AB3
:1002400020005A4F4E4520412043555252454E54AE
:100250002057415445522054454D50455241545524
:1002600052453A2000457868617573742066616E66
:10027000206973206F6E2E00417474656D7074690F
:100280006E6720746F206379636C652065786861A0
:100290007573742066616E204F6E00496E74616BD9
:1002A000652066616E206973206F6E2E0041747444
:1002B000656D7074696E6720746F206379636C6517
:1002C00020696E74616B652066616E204F6E0073ED
:1002D00075636365737366756C6C7920656E6162B6
:1002E0006C65642073756E206C6967687421006E9C
:1002F0006F74207965742074696D6520746F206552
:100300006E61626C652073756E206C696768742E0F
:1003100000617474656D7074696E6720746F206518
:100320006E61626C652073756E206C6967687420FD
:100330006361706162696C6974793A2000737563F6
:100340006365737366756C6C792064697361626C44
:1003500065642073756E206C6967687421006E6F28
:1003600074207965742074696D6520746F206469E8
:100370007361626C652073756E206C696768742E9A
:1003800000617474656D7074696E6720746F2064A9
:10039000697361626C652073756E206C696768743F
:1003A000206361706162696C6974793A20007375C9
:1003B0006E206C69676874206973206F66662E0012
:1003C00073756E206C69676874206973206F6E2E78
:1003D00000417474656D7074696E6720746F20637A
:1003E00079636C652073756E206C69676874204F43
:1003F0006E2F4F6666004E4F524D414C3A200045DD
:100400004C4556415445443A2000435249544943CF
:10041000414C3A20005A4F4E4520422043555252FB
:10042000454E54204149522048554D49444954595C
:100430003A20004E4F524D414C3A2000454C455613
:10044000415445443A2000435249544943414C3AAF
:1004500020005A4F4E4520422043555252454E549B
:10046000204149522054454D504552415455524522
:100470003A2000454C4556415445443A20004E4FE1
:10048000524D414C3A2000435249544943414C3A61
:1004900020005A4F4E4520422043555252454E545B
:1004A0002057415445522054454D504552415455D2
:1004B00052453A200057696E642066616E20697368
:1004C000206F6E2E00417474656D7074696E6720C4
:1004D000746F206379636C652057696E6420666170
:1004E0006E2E004E4F524D414C3A2000454C455621
:1004F000415445443A2000435249544943414C3AFF
:1005000020005A4F4E4520432043555252454E54E9
:10051000204149522048554D49444954593A2000F8
:100520004E4F524D414C3A2000454C4556415445A2
:10053000443A2000435249544943414C3A20005A1E
:100540004F4E4520432043555252454E5420414979
:10055000522054454D50455241545552453A200081
:10056000454C4556415445443A20004E4F524D416A
:100570004C3A2000435249544943414C3A20005AD6
:100580004F4E4520432043555252454E542057412B
:100590005445522054454D50455241545552453AC8
:1005A00020007375636365737366756C6C79206581
:1005B0006E61626C656420776174657221006E6F94
:1005C00074207965742074696D6520746F20656E80
:1005D00061626C652077617465722E006174746568
:1005E0006D7074696E6720746F20656E61626C65F2
:1005F000207761746572206361706162696C6974EF
:10060000793A20007375636365737366756C6C79F2
:100610002064697361626C6564207761746572211E
:10062000006E6F74207965742074696D6520746F35
:100630002064697361626C652077617465722E0055
:10064000617474656D7074696E6720746F2064697D
:100650007361626C6520776174657220636170619B
:1006600062696C6974793A20005761746572207010
:10067000756D70206E6F742072756E6E696E672E68
:100680000057617465722070756D702069732072F7
:10069000756E6E696E672E00417474656D70746955
:1006A0006E6720746F206379636C65205761746591
:1006B000722050756D70204F6E2F4F6666007375F7
:1006C000636365737366756C6C7920656E61626CCB
:1006D0006564206F787967656E21006E6F7420798C
:1006E00065742074696D6520746F20656E61626C3D
:1006F00065206F787967656E2E00617474656D7022
:1007000074696E6720746F20656E61626C65206F1E
:10071000787967656E206361706162696C6974796C
:100720003A20007375636365737366756C6C79202A
:1007300064697361626C6564206F787967656E21A6
:10074000006E6F74207965742074696D6520746F14
:100750002064697361626C65206F787967656E2EBD
:1007600000617474656D7074696E6720746F2064C5
:10077000697361626C65206F787967656E2063616B
:10078000706162696C6974793A20004F78796765A5
:100790006E2050756D70206E6F742072756E6E696C
:1007A0006E672E004F787967656E2050756D7020EA
:1007B00069732072756E6E696E672E004174746580
:1007C0006D7074696E6720746F206379636C652047
:1007D0004F787967656E2050756D70204F6E2F4F82
:1007E0006666002323232323232323232323232376
:1007F0002323232323232323232323230043616E43
:10080000204F787967656E2050756D7020466C6F4B
:10081000772076616C75653A20002D2D2D2D2D2DBC
:100820002D2D2D2D2D2D2D2D2D2D2D2D2D2D2D2DF8
:100830002D2D2D2D0043616E20576174657220505F
:10084000756D7020466C6F772076616C75653A2007
:10085000002D2D2D2D2D2D2D2D2D2D2D2D2D2D2DF5
:100860002D2D2D2D2D2D2D2D2D2D2D005F5F5F5A22
:100870004F4E4520435F5F5F0043616E2057696EB6
:10088000642046616E20666C6F772076616C7565BA
:100890003A20002D2D2D2D2D2D2D2D2D2D2D2D2DB5
:1008A0002D2D2D2D2D2D2D2D2D2D2D2D2D005F5F41
:1008B0005F5A4F4E4520425F5F5F0043616E205399
:1008C000756E204C69676874205368696E65207680
:1008D000616C75653A20002D2D2D2D2D2D2D2D2D82
:1008E0002D2D2D2D2D2D2D2D2D2D2D2D2D2D2D2D38
:1008F0002D0043616E20496E74616B652046616E08
:1009000020666C6F772076616C75653A20002D2D1E
:100910002D2D2D2D2D2D2D2D2D2D2D2D2D2D2D2D07
:100920002D2D2D2D2D2D2D2D0043616E2045786808
:10093000617573742046616E20666C6F77207661F6
:100940006C75653A20002D2D2D2D2D2D2D2D2D2D45
:100950002D2D2D2D2D2D2D2D2D2D2D2D2D2D2D2DC7
:10096000005F5F5F5A4F4E4520415F5F5F0023236A
:100970002323232323232323232323232323232347
:100980002323232323232300000021002400270006
:100990002A002D003000330001010000040107018E
:1009A0000A0100002200250028002B002E00310043
:1009B000340002010000050108010B0100000A0BD0
:1009C00002090C0D0E0807030401000000000000DE
:1009D0000000000000000000000000000000000017
:1009E00000000000000000001211100000000000D4
:1009F00000000000000000000000000000000000F7
:100A000000001F1C1F1E1F1E1F1F1E1F1E05050589
:100A100005070508080808020202020A0A08080475
:100A200004040401010101010101010303030303A3
:100A3000030303040707070C0C0C0C0C0C0C0C0232
:100A400002020206060606060606060B0B0B0B0B39
:100A50000B0B0B0102102020080810204010204032
:100A60008002010201080402010102040810204072
:100A70008080402010080402018004020180402090
:100A800010080402010804020101020408102040B9
:100A9000800102040810204080004F1311241FBE63
:100AA000CFEFD1E2DEBFCDBF00E00CBF24E0A0E974
:100AB000B2E001C01D92A43EB207E1F712E0A0E04F
:100AC000B2E0E4E7F0E400E00BBF02C007900D9253
:100AD000A039B107D9F715E0CEE4D5E000E006C0B3
:100AE00021970109802FFE010E94F71ECD34D10706
:100AF00080E00807A9F70E946C140C9438200C942D
:100B00000000282F30E0F901E454F64F9491F901E8
:100B1000ED5AF54F4491235F354FF901249122237B
:100B200009F435C0992311F191509231F8F4E92F6D
:100B3000F0E08827E156FA4F8F4F0C94F71ED0054E
:100B4000D405B105C805CC05B605D705DD05E10519
:100B5000E705EB05EF05F505F905B605FD05030607
:100B60000706809180008F7780938000E22FF0E06D
:100B7000EE0FFF1FEE55F64FA591B4918FB7F89485
:100B8000EC91611148C040954E234C938FBF08955E
:100B9000809180008F7DE8CF80918000877FE4CFB7
:100BA00084B58F7784BDE2CF84B58F7DFBCF8091F4
:100BB000B0008F778093B000D9CF8091B0008F7D47
:100BC000F9CF809190008F7780939000CFCF809164
:100BD00090008F7DF9CF80919000877FF5CF809135
:100BE000A0008F778093A000C1CF8091A0008F7D5F
:100BF000F9CF8091A000877FF5CF809120018F777A
:100C000080932001B3CF809120018F7DF9CF809117
:100C10002001877FF5CF4E2BB8CFCF93DF9390E0A5
:100C2000FC01ED5AF54F2491835F954FFC018491AF
:100C30008823C9F090E0880F991FFC01E857F64F10
:100C4000A591B491FC01EE55F64FC591D491611177
:100C50000DC09FB7F8948C91209582238C93888146
:100C6000282328839FBFDF91CF910895623051F4EC
:100C70009FB7F8943C91822F809583238C93E881D1
:100C80002E2BEFCF8FB7F894EC912E2B2C938FBF98
:100C9000EACF3FB7F8948091350390913603A09145
:100CA0003703B091380326B5A89B05C02F3F19F034
:100CB0000196A11DB11D3FBFBA2FA92F982F8827DC
:100CC000BC01CD01620F711D811D911D42E0660FB7
:100CD000771F881F991F4A95D1F708958F929F9289
:100CE000AF92BF92CF92DF92EF92FF926B017C01A5
:100CF0000E9449064B015C01C114D104E104F104D6
:100D0000B9F00E944906681979098A099B09683E69
:100D100073408105910580F321E0C21AD108E108F2
:100D2000F10888EE880E83E0981EA11CB11CE4CF68
:100D3000FF90EF90DF90CF90BF90AF909F908F90FB
:100D400008952FB7F8946091310370913203809128
:100D50003303909134032FBF0895CF93DF93EC01B9
:100D600062E08D810E940D060E94A106605D7740C1
:100D70008109910969877A878B879C8787E38A8BAA
:100D8000DF91CF91089508950895AF92BF92CF92C9
:100D9000DF92EF92FF920F931F93CF93DF936C013B
:100DA0007B018B01040F151FEB015E01AE18BF081C
:100DB000C017D10759F06991D601ED91FC910190CE
:100DC000F081E02DC6011995892B79F7C501DF91D6
:100DD000CF911F910F91FF90EF90DF90CF90BF9038
:100DE000AF900895FC01538D448D252F30E0842F62
:100DF00090E0821B930B541710F0CF960895019743
:100E00000895FC01918D828D981761F0A28DAE0F2F
:100E1000BF2FB11D5D968C91928D9F5F9F73928FB6
:100E200090E008958FEF9FEF0895FC01918D828DE2
:100E3000981731F0828DE80FF11D858D90E00895AF
:100E40008FEF9FEF0895FC01918D228D892F90E007
:100E5000805C9F4F821B91098F739927089589E8C1
:100E600093E00E94230721E0892B09F420E0822FE0
:100E70000895FC01A48DA80FB92FB11DA35ABF4F2F
:100E80002C91848D90E001968F739927848FA68989
:100E9000B7892C93A089B1898C91837080648C93DD
:100EA000938D848D981306C00288F389E02D80818C
:100EB0008F7D80830895EF92FF920F931F93CF93BE
:100EC000DF93EC0181E0888F9B8D8C8D98131AC085
:100ED000E889F989808185FF15C09FB7F894EE896C
:100EE000FF896083E889F9898081837080648083C9
:100EF0009FBF81E090E0DF91CF911F910F91FF9014
:100F0000EF900895F62E0B8D10E00F5F1F4F0F73BB
:100F10001127E02E8C8D8E110CC00FB607FCFACF76
:100F2000E889F989808185FFF5CFCE010E943907D4
:100F3000F1CFEB8DEC0FFD2FF11DE35AFF4FF08247
:100F40009FB7F8940B8FEA89FB8980818062CFCFAD
:100F50000F931F93CF93DF938C01D0E0C0E0F80193
:100F6000EC0FFD1F6491662341F089E893E00E9435
:100F70005B07892B11F02196F2CFCE01DF91CF9143
:100F80001F910F910895CF93DF93EC01888D8823F3
:100F9000B9F0AA89BB89E889F9898C9185FD03C0DC
:100FA000808186FD0DC00FB607FCF7CF8C9185FFC1
:100FB000F2CF808185FFEDCFCE010E943907E9CFC6
:100FC000DF91CF91089580E090E0892B29F00E9475
:100FD0002F0781110E94000080E090E0892B49F0EA
:100FE00080E090E0892B29F00E94000081110E948E
:100FF000000080E090E0892B49F080E090E0892BB0
:1010000029F00E94000081110E94000080E090E021
:10101000892B49F080E090E0892B29F00E940000A4
:1010200081110C9400000895DC0180E0615090F083
:101030009D919827E92FEF70F0E0EA57FE4F249139
:10104000E92FE295EF70F0E0EA56FE4FE491822F2F
:101050008E27ECCF0895DC012C911196ED91FC9137
:10106000F8948181822B81839281322F3095932352
:10107000928387E090E00197F1F781818323818358
:1010800083E290E00197F1F790817894EFECF0E043
:101090003197F1F7922381E009F480E00895FC0193
:1010A00090810180F281E02D292F209560FF14C0EE
:1010B000F8948281822382838181892B8183A3E2B8
:1010C000B0E01197F1F78281982B9283789487EDA5
:1010D00090E00197F1F70895F8948281822382834A
:1010E0008181892B8183AFEFB0E01197F1F7828185
:1010F000982B928378948FE090E0EBCFDF92EF9281
:10110000FF920F931F93CF93DF93EC01D62EE42E23
:1011100008E010E0FF24F39461E08D2D8F2109F4A5
:1011200060E0CE010E944F08FF0C01501109A1F7A9
:10113000E11010C0F894E981FA819181888180954D
:1011400089238183E981FA8192818881809589232D
:1011500082837894DF91CF911F910F91FF90EF9050
:10116000DF900895EF92FF920F931F93CF93DF9339
:101170008C017B0140E065E50E947E08E70188E084
:10118000E80EF11C699140E0C8010E947E08CE156E
:10119000DF05C1F7DF91CF911F910F91FF90EF9085
:1011A0000895FC0190810180F281E02DF894818105
:1011B000292F20958223818378943DE743E050E0F6
:1011C000315029F1DA011197F1F780818923C1F3B8
:1011D000F8948281822382838181892B8183789410
:1011E000ABE7B7E01197F1F7F8948181822381830F
:1011F000A3E1B1E01197F1F78081982381E009F034
:1012000080E07894E3E6F6E03197F1F7089580E026
:101210000895CF92DF92EF92FF92CF93DF93EC018C
:1012200089859A850E94D10840E06CEC89859A8571
:101230000E947E08488164E489859A850E947E0820
:101240008C818823E1F0EB818D818823F9F08881FE
:1012500081111CC00E94A1066B017C0189859A85C1
:101260000E942B08813059F00E94A1066C197D095B
:101270008E099F096E3E72408105910578F3DF91DA
:10128000CF91FF90EF90DF90CF900895E9508EEED0
:1012900092E0E33038F4F0E0EE0FFF1FEA5FFD4F1D
:1012A000808191816C01990FEE08FF088981882364
:1012B00021F060E08A810E948105C701B6010E9489
:1012C0006E0689818823D9F261E08A81DF91CF910E
:1012D000FF90EF90DF90CF900C9481054F925F923A
:1012E0006F927F928F929F92AF92BF92CF92DF9236
:1012F000EF92FF920F931F93CF93DF938C017B01AB
:10130000EA01FC01818592850E94D1088823D9F1E8
:10131000B701F801818592850E94B20840E06EEB2A
:10132000F801818592850E947E086E015E01F9E0D8
:10133000AF0EB11C7E01F8018184928488E0682E92
:10134000712C512C44244394C4010E942B08811118
:101350005428440CF1E06F1A7108B1F7F70151926B
:101360007F01AE16BF0639F7F801818592850E948C
:10137000D108813041F4F60181916F01811105C0DE
:10138000EE15FF05C1F790E008C068E0CE010E94AD
:10139000140891E028852813F6CF892FDF91CF918B
:1013A0001F910F91FF90EF90DF90CF90BF90AF9083
:1013B0009F908F907F906F905F904F900895CF9205
:1013C000DF92EF92FF92CF93DF93DC011796CC91DF
:1013D0001797D0E06111DC2F18962C91189730E008
:1013E000220F331F24593E4F50E040E0F901859110
:1013F0009491FC01F080BA0190E080E0EF2DEC23A5
:10140000ED1310C04F5F5F4F1D96CD90DD90ED90B6
:10141000FC9050976C157D058E059F0538F36FEF96
:101420007FEFCB01DF91CF91FF90EF90DF90CF90D6
:1014300008958F929F92AF92BF92CF92DF92EF92D8
:10144000FF920F931F93CF93DF93CDB7DEB7C054B6
:10145000D1400FB6F894DEBF0FBECDBF8C010E9405
:10146000A106F801C184D284E384F4849B01AC0119
:101470002C193D094E095F0969017A0130EDC31647
:1014800037E0D306E104F104A8F48189C05CDE4FA3
:101490000FB6F894DEBF0FBECDBFDF91CF911F9185
:1014A0000F91FF90EF90DF90CF90BF90AF909F9003
:1014B0008F9008956187728783879487148213823F
:1014C00012821182108262E085810E940D0661E025
:1014D00070E080E090E00E946E0661E0F801858196
:1014E0000E940D0660E0F80185810E948105F801E7
:1014F00086818551823028F58BE291E10197F1F7E1
:1015000062E0F80185810E940D06F801828990E071
:101510008230910538F0880F991F880F991F059721
:101520000197F1F7F89460E0C8010E94DF096F3F6E
:101530007F4F8F4F9F4F61F4F801118A789480E0BC
:10154000A5CF64E170E080E090E00E946E06D8CF05
:1015500061E0C8010E94DF096F3F7F4F8F4F9F4FAF
:1015600059F39E012F5F3F4F79015E013FEBA31AB4
:101570003EEFB30A670160E0C8010E94DF09F6018F
:10158000608371838283938361E0C8010E94DF09D5
:10159000F6016483758386839783F8E0CF0ED11CB0
:1015A000CA14DB0441F7789430E020E0F701808032
:1015B0009180A280B3804481558166817781FFEF5D
:1015C0008F169F06AF06BF0631F04F3F8FEF5807CB
:1015D0006807780719F4F801118AB1CFF90183E09F
:1015E000F595E7958A95E1F7E00FF11F8081880F67
:1015F00084169506A606B706F0F080832F5F3F4F4E
:10160000F8E0EF0EF11C2832310581F6F801448133
:1016100020818181280F3327331F8281280F311DBC
:101620008381820F932F911D99274817190699F6E8
:1016300081E0818B2BCF8160E0CFCF92DF92EF9260
:10164000FF92CF93DF93EC010E94190A882341F0A7
:101650008E818B3028F08D3040F08551823030F112
:1016600060E070E080EC9FE71AC0698170E090E074
:1016700080E00E94FE1C2DEC3CEC4CEC5DE30E94F3
:101680005D1D6B017C01688170E090E080E00E944C
:10169000FE1C9B01AC01C701B6010E941C1EDF911C
:1016A000CF91FF90EF90DF90CF900895688179817E
:1016B00076276727762790E080E00E94FC1C2DECBF
:1016C0003CEC4CEC5DE30E945D1DE9CFCF92DF92D4
:1016D000EF92FF921F93CF93DF93EC010E94190AC0
:1016E000882339F08E818C3009F44DC038F48B306A
:1016F000E1F060E070E080EC9FE73DC08551823012
:10170000C0F71A81612F70E0762F662766277F77F2
:101710008B81682B90E080E00E94FC1C2DEC3CEC5F
:101720004CEC5DE30E945D1D48C06A8170E090E072
:1017300080E00E94FC1C6B017C01CB81C7FF0AC0CA
:10174000AC019B0160E070E080E89FEB0E941B1EF3
:101750006B017C01CF706C2F70E090E080E00E9404
:10176000FE1C2DEC3CEC4CEC5DE30E945D1DA701E2
:1017700096010E941C1EDF91CF911F91FF90EF9068
:10178000DF90CF9008951A81612F70E090E080E0A3
:101790000E94FC1C6B017C016B816F7070E090E01B
:1017A00080E00E94FE1C2DEC3CEC4CEC5DE30E94C2
:1017B0005D1DA70196010E941C1E17FFDCCF9058EB
:1017C000DACF2091B102260F3327331F21323105A2
:1017D000ECF420915F03FC0190E080E0243069F09C
:1017E00082E00895A091B1022191AC014F565D4F66
:1017F000A40FB52FB11D2C930196861798F38091F5
:10180000B102680F6093B10280E0089581E008950D
:1018100010925F0381E080935E031092390361E0D0
:1018200084E10E94810561E085E10E948105E9EB88
:10183000F0E080818E7F808380818D7F808388E44B
:101840008093B80085E48093BC000895CF93DF9324
:1018500091E0909390028823B9F0C091B800D091A4
:10186000BA008091BC008A7B8093BC0060E084E178
:101870000E94810560E085E10E9481050E94080CBC
:10188000D093BA00C093B800DF91CF9108958F92A2
:101890009F92AF92BF92CF92DF92EF92FF920F93FF
:1018A0001F93CF93DF93D0918803D13208F0D7C034
:1018B000182FC09187030E9449066B017C0180911B
:1018C0005F0381116BC082E080935F0310935E031E
:1018D0008FEF80935D0310925C03D0935B03A7E6C8
:1018E000B3E0EBE3F3E080E0D81391C010923A0349
:1018F00080913A03CC0FC82BC0933A0380913903EF
:10190000813009F088C0109239030E9449066B01AA
:101910007C0180913A038093BB0080916103909198
:101920006203A0916303B0916403892B8A2B8B2BF4
:10193000A1F00E9449060091610310916203209179
:101940006303309164036C197D098E099F090617A2
:1019500017072807390708F442C08091BC0083FDAF
:10196000D8CF85EC8093BC000E9449066B017C01B6
:1019700080915F03823009F450C080915D038F3FF6
:1019800009F46FC080915D03803209F46CC08091CE
:101990005D03803309F469C084E026C0809161034F
:1019A00090916203A0916303B0916403892B8A2B09
:1019B0008B2B09F484CF0E9449068090610390909C
:1019C0006203A0906303B09064036C197D098E09D3
:1019D0009F0986169706A806B90608F070CF809171
:1019E00060030E94260C85E0109266031092880323
:1019F00010926503DF91CF911F910F91FF90EF90AF
:101A0000DF90CF90BF90AF909F908F9008959D9161
:101A100091938F5F69CF85EEA5CF809161039091FF
:101A20006203A0916303B0916403892B8A2B8B2BF3
:101A300009F49ECF0E944906009161031091620350
:101A400020916303309164036C197D098E099F090D
:101A5000061717072807390708F08ACFC0CF81E09B
:101A6000C3CF80E0C1CF82E0BFCF83E0BDCF089578
:101A7000E091D9028091D802E81730F4F0E0E65204
:101A8000FD4F808190E008958FEF9FEF0895909132
:101A9000D9028091D8022FEF3FEF981748F4E92F31
:101AA000F0E0E652FD4F208130E09F5F9093D90235
:101AB000C90108958091D8029091D902891B990B90
:101AC0000895CF92DF92EF92FF920F931F93CF93DF
:101AD000DF937C01CB018A0120916503222389F0E9
:101AE000EB016B01C40ED51ECC15DD0569F06991C3
:101AF000D701ED91FC910190F081E02DC70119957E
:101B0000F3CF642F0E94E10BC801DF91CF911F91A9
:101B10000F91FF90EF90DF90CF900895CF93DF93D8
:101B20001F92CDB7DEB76983209165032223F9F0B8
:101B300020918803203258F021E030E0FC0133830B
:101B4000228390E080E00F90DF91CF910895809103
:101B50006603E82FF0E0E959FC4F998190838F5F8D
:101B6000809366038093880381E090E0ECCF61E08E
:101B7000CE0101960E94E10BF7CF90E080E008953E
:101B8000CF93DF93EC018B818823A1F0888191E0D2
:101B900090936503809387031092660310928803E5
:101BA00081E00E94470C91E0811190E0892FDF9144
:101BB000CF9108951092D9021092D8021092660324
:101BC000109288030E94080C83EC96E09093D70251
:101BD0008093D60284EC96E09093D5028093D40251
:101BE00081E08B83CE010E94C00D982F8111CECF52
:101BF000DDCFFC0101900020E9F73197AF01481BD0
:101C0000590BBC0189E893E00C94C5068F929F9212
:101C1000AF92BF920F931F93CF93DF93CDB7DEB7F1
:101C2000A1970FB6F894DEBF0FBECDBF19A2423008
:101C300008F44AE08E010F5D1F4F842E912CB12CC9
:101C4000A12CA50194010E94D51EE62FB901CA015D
:101C5000EA30F4F4E05DD801EE938D01232B242BC0
:101C6000252B79F790E080E0109719F0CD010E94C4
:101C7000F90DA1960FB6F894DEBF0FBECDBFDF9170
:101C8000CF911F910F91BF90AF909F908F9008952B
:101C9000E95CE1CFCF93DF930E94A807EC0180E3DA
:101CA00092E00E94F90D8C0F9D1FDF91CF91089556
:101CB000CF93DF936AE089E893E00E945B07EC0131
:101CC00080E392E00E94F90D8C0F9D1FDF91CF9170
:101CD00008954F925F926F927F928F929F92AF92F0
:101CE000BF92CF92DF92EF92FF926B017C01AC0129
:101CF0009B010E94BC1E8823C1F083E392E00E94F6
:101D0000F90D7C0180E392E00E94F90D8E0D9F1D7C
:101D1000FF90EF90DF90CF90BF90AF909F908F900B
:101D20007F906F905F904F90089546015701E8941F
:101D3000B7F82FEF3FEF4FE75FE7C501B4010E940F
:101D4000BC1E81110DC02FEF3FEF4FE75FE7C501CC
:101D5000B4010E94F71C18161CF487E392E0CFCF61
:101D60002FEF3FEF4FE75FE4C701B6010E94B71EB8
:101D700018161CF48BE392E0C2CF2FEF3FEF4FE732
:101D80005FECC701B6010E94F71C87FDF3CF20E08E
:101D900030E0A901C701B6010E94F71CB12CA12CAB
:101DA00087FF0AC06DE289E893E00E945B075C014F
:101DB000F7FAF094F7F8F0942AE037ED43EA5BE3A2
:101DC000C701B6010E941C1E2B013C010E94881E07
:101DD0006B017C010E94FC1C9B01AC01C301B201A0
:101DE0000E941B1E2B013C014AE0C701B6010E9464
:101DF000060E7C01EA0CFB1C6EE289E893E00E946F
:101E00005B07E80EF91E20E030E040E251E4C30138
:101E1000B2010E945D1D2B013C010E94881E4B01F6
:101E2000B12CA12C4AE0C501B4010E94060EE80EB7
:101E3000F91EC501B4010E94FC1C9B01AC01C30149
:101E4000B2010E941B1E20E030E040E251E40E94FB
:101E50005D1D0E94881E90E080E04AE00E94060E10
:101E6000E80EF91E4FCFCF92DF92EF92FF92CF9301
:101E7000DF936C01990FEE08FF08F7FE1FC06DE2BB
:101E800089E893E00E945B07EC0166277727CB0186
:101E90006C197D098E099F094AE00E94060EC80F41
:101EA000D91F80E392E00E94F90D8C0F9D1FDF91F6
:101EB000CF91FF90EF90DF90CF9008954AE0C70157
:101EC000B6010E94060EEC01ECCFBF92CF92DF92DA
:101ED000EF92FF920F931F93CF93DF93EC01B62EF7
:101EE000C72E8D85811105C0CE010E94D1088111B8
:101EF0000EC01B861D861C8680E0DF91CF911F914E
:101F00000F91FF90EF90DF90CF90BF90089540E049
:101F100060EFCE010E947E0801E0E12CD12C11E09F
:101F2000CE010E942B08F82ECE010E942B0891E0D2
:101F3000F91218C0813099F51134D8F2DB86D1102E
:101F400002C081E08D878B81882399F22396EB2D47
:101F5000FC2DCF01089629912193E817F907D9F7AD
:101F600081E0CBCFEE2DF0E0F8120FC08B85181773
:101F7000A0F4DE01AE0FBF1F13968C91802379F47D
:101F8000F12C193008F41C87D12EEC0FFD1F838132
:101F9000902F9095892383830AC08113F1CFFE018E
:101FA000EE0DF11D8381802B8383FF24F3946F2D2D
:101FB000CE010E944F081F5F000F11F4E39401E06F
:101FC00087E08E1508F0ACCFB7CF0F931F93CF9358
:101FD000DF93CDB7DEB761970FB6F894DEBF0FBEC3
:101FE000CDBF8C01DC011996ED91FC911A971386F7
:101FF000158614861286118610861782168215821F
:1020000014821382BE01665F7F4F19968D919C9159
:102010000E94650F81110FC060E070E08EEF92ECBE
:1020200061960FB6F894DEBF0FBECDBFDF91CF91A2
:102030001F910F91089567E0CE010A960E9414083F
:1020400099898913E9CFAE014F5F5F4FBE01665F8B
:102050007F4FC8010E946E098823F1F26A8170E007
:10206000762F6627770F770F770F2981B8E02B9FA0
:1020700090011124262B372B8A858031E1F4688565
:102080006623C9F070E08F81FB01E81BF109CF01E5
:102090009695982F8827979587950E94C11ECB010A
:1020A0008097B90153E0660F771F5A95E1F7607882
:1020B0009C01260F371F2138F4EE3F070CF4ACCFFC
:1020C000B901330F880B990B0E94FE1C20E030E011
:1020D00040E05CE30E945D1DA3CFEF92FF920F935F
:1020E0001F93CF93DF93CDB7DEB761970FB6F89408
:1020F000DEBF0FBECDBF8C01DC011996ED91FC91C6
:102100001A971386158614861286118610861782F2
:10211000168215821482138217961C9217971896AE
:102120001C92FF24F394BE01665F7F4FF801818506
:1021300092850E94650F882309F472C067E0CE0182
:102140000A960E94140899898913EDCFD801179631
:102150008C9117978F5F17968C938A85883231F010
:1021600008F045C0803111F08232E9F6F80180852F
:102170008F5F80878081811124C0818592850E9434
:10218000D108BE01665F7F4FD80119968D919C9151
:102190000E94B20840E064EBF801818592850E94BC
:1021A0007E08D80119968D919C910E942B08E82EEB
:1021B000F801818592850E94D108E11002C0D80102
:1021C000FC928A858031F1F0AE014F5F5F4FBE0116
:1021D000665F7F4FC8010E946E09882331F08D81B0
:1021E0008F33D1F058F48F31C9F080E00EC08B33BB
:1021F00009F4BCCF823409F096CFB8CF8F3521F0E7
:102200008F3799F78CE001C08BE0F8019381981724
:1022100008F089CF838387CF8AE0F7CF89E0F5CFB5
:1022200061960FB6F894DEBF0FBECDBFDF91CF91A0
:102230001F910F91FF90EF90089585ED8093BC0062
:102240008091610390916203A0916303B091640354
:102250000796A11DB11D23E0B695A7959795879583
:102260002A95D1F72091BC0024FD03C010925F0392
:1022700008954091610350916203609163037091EE
:102280006403452B462B472B69F30097A105B10545
:1022900041F02AE22A95F1F700C00197A109B1099E
:1022A000E1CF809160030C94260C1F920F920FB621
:1022B0000F9211242F933F938F939F93AF93BF93CC
:1022C0008091310390913203A0913303B091340394
:1022D0003091300323E0230F2D3758F50196A11DCF
:1022E000B11D209330038093310390933203A09368
:1022F0003303B09334038091350390913603A0915A
:102300003703B09138030196A11DB11D80933503A9
:1023100090933603A0933703B0933803BF91AF91E6
:102320009F918F913F912F910F900FBE0F901F9013
:10233000189526E8230F0296A11DB11DD2CF1F923A
:102340000F920FB60F9211240BB60F922F933F935B
:102350004F935F936F937F938F939F93AF93BF93AD
:10236000EF93FF9389E893E00E943907FF91EF9183
:10237000BF91AF919F918F917F916F915F914F919D
:102380003F912F910F900BBE0F900FBE0F901F909B
:1023900018951F920F920FB60F9211240BB60F9241
:1023A0002F938F939F93EF93FF93E0919903F09175
:1023B0009A038081E0919F03F091A00382FD1DC0EC
:1023C00090818091A2038F5F8F732091A303821766
:1023D00041F0E091A203F0E0E757FC4F958F809326
:1023E000A203FF91EF919F918F912F910F900BBEC0
:1023F0000F900FBE0F901F9018958081F2CF1F9203
:102400000F920FB60F9211240BB60F922F933F939A
:102410004F935F936F937F938F939F93AF93BF93EC
:10242000EF93FF938091B900887F803609F44DC007
:1024300008F040C0883209F4A9C028F5803109F4B9
:102440009DC0C8F4882309F4FBC0883009F496C005
:10245000FF91EF91BF91AF919F918F917F916F917C
:102460005F914F913F912F910F900BBE0F900FBE38
:102470000F901F901895883109F488C0803241F779
:1024800080935D0314C0803409F49DC040F4803310
:10249000B9F38833E9F680935D0385ECB0C08035ED
:1024A00009F485C0883509F496C0883489F60E94FD
:1024B0001D11CECF883909F48CC038F5883729F042
:1024C00050F4883611F0803719F683E080935F036B
:1024D0001092D30257C0883809F47BC0803919F0B4
:1024E000803809F0B5CF8091D302803208F071C0F6
:1024F000E091D30281E08E0F8093D3028091BB00E4
:10250000F0E0ED54FD4F80833DC0803B39F0E0F4B6
:10251000803A09F479C0883A09F09ACF84E0809330
:102520005F031092B2021092B102E091D602F091D4
:10253000D70219958091B10281110FC081E080937B
:10254000B1021092910209C0803C09F4A6CF883CE8
:1025500009F4A3CF883B09F07BCFE091B20281E080
:102560008E0F8093B202F0E0EF56FD4F8081809392
:10257000BB009091B2028091B10229C080913A03D0
:102580008093BB0085EC8093BC0062CF90915C038C
:1025900080915B03981758F5E0915C0381E08E0F02
:1025A00080935C03F0E0E55CFC4F8081E9CFE09133
:1025B0005C0381E08E0F80935C038091BB00F0E0B0
:1025C000E55CFC4F808390915C0380915B039817DE
:1025D000C8F285E8D8CFE0915C0381E08E0F80934C
:1025E0005C038091BB00F0E0E55CFC4F8083809150
:1025F0005E0381115CCF81E08093390384EA80938C
:10260000BC0010925F0324CF85EC8093BC00109235
:102610005F038091D302803230F4E091D302F0E086
:10262000ED54FD4F10826091D30270E0E091D4022E
:10263000F091D50283EB92E019951092D30208CF66
:1026400010925D0334CF1F93CF93DF93EC01162FCD
:1026500060E0812F0E940D06612F70E0FB01ED5AB2
:10266000F54FE491E883FB01E35FF54FE491F0E07F
:10267000EE0FFF1FE459FE4F859194919A83898351
:102680001B861D861C861A86198618861F821E8246
:102690001D821C821B82DF91CF911F910895CF93E1
:1026A00010928C0310928B0388EE93E0A0E0B0E0D0
:1026B00080938D0390938E03A0938F03B093900328
:1026C00020E132E030938A032093890325EC30E047
:1026D000309396032093950324EC30E030939803D5
:1026E0002093970320EC30E030939A0320939903D2
:1026F00021EC30E030939C0320939B0322EC30E0EC
:1027000030939E0320939D0326EC30E03093A0038A
:1027100020939F031092A2031092A3031092A4038C
:102720001092A503109229041092280480932A0481
:1027300090932B04A0932C04B0932D0482E292E09A
:10274000909327048093260485E08093D20426E1A9
:102750002093D304E8E5FAE0E491E093D404E2E1C5
:10276000FAE0E491E093D50480E89EE3A0E0B0E0D5
:102770008093DA049093DB04A093DC04B093DD042F
:1027800034E03093BF042093C004E7E5FAE0E4911D
:10279000E093C104E1E1FAE0E491E093C2048093A4
:1027A000C7049093C804A093C904B093CA0433E04B
:1027B0003093AC042093AD04E6E5FAE0E491E093B5
:1027C000AE04E0E1FAE0E491E093AF048093B40456
:1027D0009093B504A093B604B093B7041092A604E6
:1027E0001092A5041092A4041092A104E2E0FAE071
:1027F00081E08C3051F09491823009F49F5F21E0A8
:10280000280F3196992309F465C08093A204C1E092
:10281000C093A30460E083E994E00E9423136BE07B
:1028200085E894E00E9423136CE087E794E00E941F
:10283000231310927604109275041092610483E9B8
:1028400094E090936A048093690410926704109254
:1028500068041092600489E080936304C093640468
:10286000C0936504C093660410925F0410925E04E6
:1028700010924A0425E834E0309353042093520424
:1028800010925004109251041092490480934C0409
:10289000C0934D04C0934E04C0934F04109248045B
:1028A000109247041092330427E734E030933C043D
:1028B00020933B041092390410923A04109232048F
:1028C00080933504C0933604C0933704C093380412
:1028D000CF910895822F8DCFCF93DF9300D000D07A
:1028E0001F92CDB7DEB7789484B5826084BD84B57D
:1028F000816084BD85B5826085BD85B5816085BDFB
:1029000080916E00816080936E00109281008091B2
:10291000810082608093810080918100816080933A
:102920008100809180008160809380008091B1005F
:1029300084608093B1008091B00081608093B0008A
:1029400080919100826080939100809191008160DC
:10295000809391008091900081608093900080919D
:10296000A10082608093A1008091A100816080938A
:10297000A1008091A00081608093A000809121013E
:1029800082608093210180912101816080932101E7
:102990008091200181608093200180917A00846081
:1029A00080937A0080917A00826080937A0080918F
:1029B0007A00816080937A0080917A0080688093A9
:1029C0007A001092C100E0919903F0919A0382E09D
:1029D0008083E0919503F09196031082E091970334
:1029E000F091980380E180831092A103E0919D0310
:1029F000F0919E0386E08083E0919B03F0919C031D
:102A0000808180618083E0919B03F0919C038081B1
:102A100088608083E0919B03F0919C0380818068B3
:102A20008083E0919B03F0919C0380818F7D808364
:102A300068EE73E080E090E00E946E068FE392E023
:102A40000E94F90D80E392E00E94F90D80E694E087
:102A50000E946D1089E494E00E946D1082E394E07E
:102A60000E946D1080912A0390912B03009711F022
:102A70000E94AF1F86E090E00E94131F8C0188E641
:102A8000D8018C9386E294E012969C938E931197D2
:102A900013961C92139780E290E015969C938E9368
:102AA000149710932B0300932A031092D9021092CB
:102AB000D80210926603109288030E94080C83ECDF
:102AC00096E09093D7028093D60284EC96E09093A0
:102AD000D5028093D40281E0F8018383C8010E946B
:102AE000C00D811113C08EE592E00E94F90D80E3C4
:102AF00092E00E94F90D89E893E00E94C3076AE022
:102B000070E080E090E00E946E06F9CF61E08DE019
:102B10000E940D0660E08DE00E94810561E08DE07D
:102B20000E940D0660E08DE00E94810561E08DE06D
:102B30000E940D0660E08DE00E94810561E08DE05D
:102B40000E940D0660E08DE00E94810561E08DE04D
:102B50000E940D0660E08DE00E9481058DEC94E0FE
:102B60000E94AD068AEB94E00E94AD0687EA94E0ED
:102B70000E94AD0611E097E0892E912C33243A94FF
:102B80000E94580E8EE699E00E944A0E0E94A1060D
:102B900060932C0370932D0380932E0390932F0347
:102BA0001982A0902A03B0902B03D50114968D9121
:102BB0009C911597892B09F41FC111968D919C91B9
:102BC00012972C911093650320938703109266034C
:102BD00010928803DC01ED91FC910280F381E02DDD
:102BE00041E050E0BE016F5F7F4F1995019709F0FA
:102BF00003C180E00E94470C8111FEC0D12CC12C82
:102C0000F501848195817401EC18FD088E159F05EE
:102C100008F47C01D5012C900E9449062B013C014F
:102C200080915F03811170C00E2D013208F000E227
:102C300010935F0321E0C4018E199F09C816D906BD
:102C400008F420E020935E0330925D0310925C0351
:102C50008FEF800F80935B0310933A0380913A03C8
:102C6000220C282A20923A0380913903813009F0FE
:102C700096C0109239030E9449062B013C018091B5
:102C80003A038093BB008091610390916203A0910D
:102C90006303B0916403892B8A2B8B2BA1F00E94D4
:102CA0004906209161033091620340916303509182
:102CB00064036419750986099709261737074807B9
:102CC000590708F442C08091BC0083FDD8CFB5EC11
:102CD000B093BC000E9449062B013C0180915F0328
:102CE000813009F460C080915C03801710F400917A
:102CF0005C03ABE3B3E0EAEDF2E080E0801751F172
:102D00009D9191938F5FFACF8091610390916203BF
:102D1000A0916303B0916403892B8A2B8B2B09F458
:102D20007FCF0E9449062091610330916203409158
:102D3000630350916403641975098609970926177E
:102D400037074807590708F06BCF809160030E944E
:102D5000260C00E01092D9020093D8020E151F0431
:102D600009F04AC066246394712C6C0E7D1E6C0CB5
:102D70007D1C2301C301841995098E159F05A8F5B3
:102D8000D50111968D919C91DC01ED91FC9102840D
:102D9000F385E02D1995F30181933F01EBCFE5EE2B
:102DA000E093BC0097CF8091610390916203A09162
:102DB0006303B0916403892B8A2B8B2B09F48ECF8C
:102DC0000E944906209161033091620340916303A0
:102DD0005091640364197509860997092617370706
:102DE0004807590708F07ACFB0CFCE0CDF1CF7E0C8
:102DF000CF16D10408F404CFE981EF779A81292F07
:102E000030E084E0359527958A95E1F7822F880F89
:102E1000880F422F481B842F880F890F4B81242F46
:102E200030E094E0359527959A95E1F7922F990F28
:102E3000990F522F591B952F990F940FFD814E8199
:102E40004F775F81252F30E064E0359527956A95AF
:102E5000E1F7322F330F330F231B220F250F20935F
:102E6000A104642F70E0A4E075956795AA95E1F739
:102E7000262F220F220F621B660F640F6093A2049D
:102E80004F2F50E0B4E055954795BA95E1F7242FC0
:102E9000220F220F421B440F4F0F4093A304909325
:102EA000A4048093A5042E2F30E004E035952795E7
:102EB0000A95E1F7322F330F330F231B220F2E0F0A
:102EC0002093A604292F30E0309329032093280370
:102ED00090E0909327038093260380E792E00E947E
:102EE000F90D80912803909129030E94330F8FE7F9
:102EF00092E00E94F90D80912603909127030E9491
:102F0000330F0E94580E0E94580E80E694E00E94F3
:102F1000090989E494E00E94090982E394E00E948F
:102F2000090980E694E00E94E50F60932203709304
:102F30002303809324039093250389E494E00E9463
:102F4000E50F60931E0370931F03809320039093FB
:102F5000210382E394E00E94E50F60931A037093CB
:102F60001B0380931C0390931D0381E699E00E944C
:102F70004A0E85EC91E00E94A8078DEC94E00E9437
:102F80001D0B20E030E046E952E40E94B71E87FDA9
:102F9000EAC310930C0310930B038AEB91E00E9499
:102FA000A8078DEC94E00E941D0B0E94690E82E040
:102FB00092E00E94A8078DEC94E00E94660B20E04E
:102FC00030E040E052E40E94B71E87FDF2C3109348
:102FD0000A031093090387EF91E00E94A8078DEC84
:102FE00094E00E94660B0E94690E82E492E00E94C7
:102FF000A807C0902203D0902303E0902403F09010
:10300000250320E030E040EF51E4C701B6010E9403
:10301000B71E87FDF4C387E392E00E94A807C701AB
:10302000B6010E94690E86E499E00E944A0E89E288
:1030300099E00E94A80781E090E00E94330F809100
:10304000FA02811104C080910C0381110CC080919F
:103050000B03811108C080910A03811104C0809183
:103060000903882361F088E792E00E944A0E61E03C
:103070008DE00E94810585E692E00E944A0E8EE076
:1030800099E00E944A0E82EF98E00E94A80781E032
:1030900090E00E94330F8091FA02811104C0809168
:1030A0000C0381110CC080910B03811108C0809129
:1030B0000A03811104C080910903882371F08DEA0D
:1030C00092E00E944A0E61E08DE00E94810510931B
:1030D000FA028BE992E00E944A0E87ED98E00E9486
:1030E0004A0E8BEB98E00E94A8078091190390E0AC
:1030F0000E94330F80911903811111C081E193E087
:103100000E94A807809128039091290307970CF447
:1031100090C3109319038FEC92E00E944A0E8091A5
:103120001903882389F081E893E00E94A807809121
:1031300028039091290342970CF47EC3109219033F
:103140008DE393E00E944A0E80911903882309F4CD
:1031500083C08091FF02811104C080910C03811112
:103160000DC080910B03811109C080910A03811168
:1031700005C080910903882309F472C081ED93E0B2
:103180000E944A0E8091FF0281112FC0C0902C0333
:10319000D0902D03E0902E03F0902F038091FB023E
:1031A0009091FC02A091FD02B091FE02A701960150
:1031B000281B390B4A0B5B0BDA01C901883E93408F
:1031C000A105B10590F061E08DE00E9481051093AA
:1031D000FF02C092FB02D092FC02E092FD02F0924C
:1031E000FE0280EC93E00E944A0E8091FF02882349
:1031F00079F1C0902C03D0902D03E0902E03F09035
:103200002F038091FB029091FC02A091FD02B091EE
:10321000FE02A7019601281B390B4A0B5B0BDA0152
:10322000C901883E9340A105B10590F060E08DE0B2
:103230000E9481051092FF02C092FB02D092FC0214
:10324000E092FD02F092FE028EEA93E00E944A0EA6
:1032500080911903811104C060E08DE00E94810516
:103260000E94580E8EEA98E00E944A0E85E194E092
:103270000E94A8078AEB94E00E941D0B20E030E03A
:103280004EEB52E40E94B71E87FDD9C2109304038F
:10329000109303038AE094E00E94A8078AEB94E06D
:1032A0000E941D0B0E94690E82E594E00E94A8070F
:1032B0008AEB94E00E94660B20E030E040EF51E49E
:1032C0000E94B71E87FDE1C2109302031093010311
:1032D00087E494E00E94A8078AEB94E00E94660BC2
:1032E0000E94690E82E994E00E94A807C0901E0324
:1032F000D0901F03E0902003F090210320E030E005
:1033000040EF51E4C701B6010E94B71E87FDE3C23A
:1033100087E894E00E94A807C701B6010E94690EE1
:1033200083E998E00E944A0E89E798E00E94A80786
:1033300081E090E00E94330F8091040381110CC062
:1033400080910303811108C080910203811104C0A0
:1033500080910103882391F085EC94E00E944A0E4D
:103360008091000381110AC061E08DE00E94810517
:103370001093000385EB94E00E944A0E0E94580EC1
:103380008CE698E00E944A0E82E095E00E94A80731
:1033900087EA94E00E941D0B20E030E048EC52E404
:1033A0000E94B71E87FDB1C210931503109314033A
:1033B00087EF94E00E94A80787EA94E00E941D0B23
:1033C0000E94690E8FE395E00E94A80787EA94E0C7
:1033D0000E94660B20E030E040EF51E40E94B71EEF
:1033E00087FDB9C2109313031093120384E395E091
:1033F0000E94A80787EA94E00E94660B0E94690E6B
:103400008FE795E00E94A807C0901A03D0901B0395
:10341000E0901C03F0901D0320E030E040EF51E409
:10342000C701B6010E94B71E87FDBBC284E795E0C5
:103430000E94A807C701B6010E94690E81E598E0C5
:103440000E944A0E85E398E00E94A8078091180325
:1034500090E00E94330F80911803811111C08CED10
:1034600095E00E94A807809128039091290307976F
:103470000CF4B1C21093180382EA95E00E944A0E40
:1034800080911803882389F080E496E00E94A807C1
:10349000809128039091290341970CF49FC21092C8
:1034A000180384E096E00E944A0E80911803882356
:1034B00009F483C080910D03811104C080910C0335
:1034C00081110DC080910B03811109C080910A0305
:1034D000811105C080910903882309F472C088E92D
:1034E00096E00E944A0E80910D0381112FC0C0907A
:1034F0002C03D0902D03E0902E03F0902F038091A9
:10350000050390910603A0910703B0910803A7015A
:103510009601281B390B4A0B5B0BDA01C901803677
:103520009A4EA105B10590F061E08DE00E94810501
:1035300010930D03C0920503D0920603E092070397
:10354000F092080381E896E00E944A0E80910D03F4
:10355000882379F1C0902C03D0902D03E0902E03A6
:10356000F0902F038091050390910603A09107032B
:10357000B0910803A7019601281B390B4A0B5B0B7E
:10358000DA01C90180369A4EA105B10590F060E0DC
:103590008DE00E94810510920D03C0920503D09228
:1035A0000603E0920703F092080389E696E00E9482
:1035B0004A0E80911803811104C060E08DE00E94E2
:1035C00081058AE198E00E944A0E8DEF97E00E9403
:1035D000A8078091170390E00E94330F8091170392
:1035E000811111C08AEF96E00E94A80780912803FC
:1035F0009091290343970CF4F4C1109317038EEBB9
:1036000096E00E944A0E80911703882389F081E694
:1036100097E00E94A807809128039091290347977B
:103620000CF4E2C11092170383E297E00E944A0E65
:1036300080911703882309F483C0809116038111B8
:1036400004C08091150381110DC080911403811174
:1036500009C080911303811105C080911203882352
:1036600009F472C08CEB97E00E944A0E8091160319
:1036700081112FC0C0902C03D0902D03E0902E0319
:10368000F0902F0380910E0390910F03A0911003EF
:10369000B0911103A7019601281B390B4A0B5B0B54
:1036A000DA01C901883E9340A105B10590F061E0BF
:1036B0008DE00E94810510931603C0920E03D092F4
:1036C0000F03E0921003F092110384EA97E00E9446
:1036D0004A0E80911603882379F1C0902C03D09074
:1036E0002D03E0902E03F0902F0380910E03909114
:1036F0000F03A0911003B0911103A7019601281B9D
:10370000390B4A0B5B0BDA01C901883E9340A105D6
:10371000B10590F060E08DE00E94810510921603E3
:10372000C0920E03D0920F03E0921003F0921103A7
:103730008BE897E00E944A0E80911703811104C024
:1037400060E08DE00E94810583EE97E00E944A0EC2
:103750000E94580E68E873E180E090E00E946E06D7
:103760000E94E3070DCA87EA94E00E941D0B20E047
:1037700030E04CE852E40E94B71E87FD13C08DEC88
:1037800094E00E941D0B20E030E046E952E40E94E4
:10379000F71C87FF07C010920C0310930B038FEAEE
:1037A00091E0FDCB10920C0310920B0386EA91E09E
:1037B000F6CB87EA94E00E94660B20E030E040EF11
:1037C00051E40E94B71E87FD13C08DEC94E00E9467
:1037D000660B20E030E040E052E40E94F71C87FFD7
:1037E00007C010920A03109309038CEE91E0F5CB09
:1037F00010920A031092090383EE91E0EECB20E0D1
:1038000030E040EE51E4C701B6010E94B71E87FDCB
:103810000DC020E030E040EF51E4C701B6010E9446
:10382000F71C87FF03C083E292E0F7CB8EE292E0C1
:10383000F4CB8FEE92E071CC8EE593E083CC8AEBF3
:1038400094E00E941D0B20E030E044EB52E40E9423
:10385000B71E87FD13C08AEB94E00E941D0B20E089
:1038600030E04EEB52E40E94F71C87FF07C0109235
:103870000403109303038FEF93E00ECD1092040323
:103880001092030386EF93E007CD8AEB94E00E9449
:10389000660B20E030E040EE51E40E94B71E87FD49
:1038A00013C08AEB94E00E94660B20E030E040EF0A
:1038B00051E40E94F71C87FF07C010920203109387
:1038C00001038CE394E006CD1092020310920103F1
:1038D00083E394E0FFCC20E030E048EE51E4C70100
:1038E000B6010E94B71E87FD0DC020E030E040EF1A
:1038F00051E4C701B6010E94F71C87FF03C083E7AC
:1039000094E008CD8EE794E005CD87EA94E00E942C
:10391000660B20E030E048EC52E40E94B71E87FDC1
:1039200013C087EA94E00E94660B20E030E048EC88
:1039300052E40E94F71C87FF07C0109215031093F2
:1039400014038CEE94E036CD1092150310921403FC
:1039500083EE94E02FCD87EA94E00E94660B20E08E
:1039600030E040EE51E40E94B71E87FD13C087EAA5
:1039700094E00E94660B20E030E040EF51E40E94AA
:10398000F71C87FF07C0109213031093120389E2FC
:1039900095E02ECD109213031092120380E295E071
:1039A00027CD20E030E040ED51E4C701B6010E9490
:1039B000B71E87FD0DC020E030E040EF51E4C701A5
:1039C000B6010E94F71C87FF03C080E695E030CD6A
:1039D0008BE695E02DCD8EEB95E050CD81E296E023
:1039E00062CD8BED96E00DCE81E497E01FCE0E9474
:1039F000391D08F481E00895E89409C097FB3EF46E
:103A000090958095709561957F4F8F4F9F4F99232B
:103A1000A9F0F92F96E9BB279395F69587957795A9
:103A20006795B795F111F8CFFAF4BB0F11F460FF69
:103A30001BC06F5F7F4F8F4F9F4F16C0882311F0C1
:103A400096E911C0772321F09EE8872F762F05C0D5
:103A5000662371F096E8862F70E060E02AF09A9570
:103A6000660F771F881FDAF7880F9695879597F965
:103A70000895990F0008550FAA0BE0E8FEEF1616FF
:103A80001706E807F907C0F012161306E407F50752
:103A900098F0621B730B840B950B39F40A2661F0C6
:103AA000232B242B252B21F408950A2609F4A14069
:103AB000A6958FEF811D811D08950E94701D0C94A5
:103AC000E11D0E94D31D38F00E94DA1D20F09523DD
:103AD00011F00C94CA1D0C94D01D11240C94151EC9
:103AE0000E94F21D70F3959FC1F3950F50E0551F92
:103AF000629FF001729FBB27F00DB11D639FAA2743
:103B0000F00DB11DAA1F649F6627B00DA11D661F91
:103B1000829F2227B00DA11D621F739FB00DA11DB2
:103B2000621F839FA00D611D221F749F3327A00D6C
:103B3000611D231F849F600D211D822F762F6A2F08
:103B400011249F5750409AF0F1F088234AF0EE0F6D
:103B5000FF1FBB1F661F771F881F91505040A9F79A
:103B60009E3F510580F00C94CA1D0C94151E5F3FBA
:103B7000E4F3983ED4F3869577956795B795F795D6
:103B8000E7959F5FC1F7FE2B880F911D969587954E
:103B900097F9089597F99F6780E870E060E00895CD
:103BA0009FEF80EC089500240A9416161706180655
:103BB0000906089500240A94121613061406050631
:103BC0000895092E0394000C11F4882352F0BB0FC2
:103BD00040F4BF2B11F460FF04C06F5F7F4F8F4F25
:103BE0009F4F089557FD9058440F551F59F05F3F60
:103BF00071F04795880F97FB991F61F09F3F79F00F
:103C000087950895121613061406551FF2CF469590
:103C1000F1DF08C0161617061806991FF1CF869512
:103C20007105610508940895E894BB2766277727F6
:103C3000CB0197F908955058BB27AA270E94331E3D
:103C40000C94E11D0E94D31D38F00E94DA1D20F073
:103C500039F49F3F19F426F40C94D01D0EF4E0952E
:103C6000E7FB0C94CA1DE92F0E94F21D58F3BA1706
:103C7000620773078407950720F079F4A6F50C9482
:103C8000141E0EF4E0950B2EBA2FA02D0B01B901D6
:103C900090010C01CA01A0011124FF27591B99F0C2
:103CA000593F50F4503E68F11A16F040A22F232FCE
:103CB000342F4427585FF3CF469537952795A7951E
:103CC000F0405395C9F77EF41F16BA0B620B730BC5
:103CD000840BBAF09150A1F0FF0FBB1F661F771F36
:103CE000881FC2F70EC0BA0F621F731F841F48F4EB
:103CF000879577956795B795F7959E3F08F0B0CF74
:103D00009395880F08F09927EE0F9795879508955A
:103D10000E94FA1D88F09F5798F0B92F9927B75144
:103D2000B0F0E1F0660F771F881F991F1AF0BA955F
:103D3000C9F714C0B13091F00E94141EB1E008958B
:103D40000C94141E672F782F8827B85F39F0B93F7D
:103D5000CCF3869577956795B395D9F73EF4909512
:103D60008095709561957F4F8F4F9F4F08950E946A
:103D7000391D08F48FEF08950E94391D880B990BA7
:103D8000089597FB072E16F4009407D077FD09D00D
:103D90000E94FF1E07FC05D03EF4909581959F4F31
:103DA0000895709561957F4F0895A1E21A2EAA1B80
:103DB000BB1BFD010DC0AA1FBB1FEE1FFF1FA217DB
:103DC000B307E407F50720F0A21BB30BE40BF50BD8
:103DD000661F771F881F991F1A9469F76095709561
:103DE000809590959B01AC01BD01CF010895EE0F28
:103DF000FF1F881F8BBF0790F691E02D1994AA1B17
:103E0000BB1B51E107C0AA1FBB1FA617B70710F0C5
:103E1000A61BB70B881F991F5A95A9F780959095F7
:103E2000BC01CD0108950F931F93CF93DF93823090
:103E3000910510F482E090E0E091E204F091E30457
:103E400030E020E0B0E0A0E0309799F42115310592
:103E500009F44AC0281B390B24303105D8F58A8172
:103E60009B816115710589F1FB0193838283FE01BA
:103E700011C0408151810281138148175907E0F038
:103E80004817590799F4109761F012960C931297FE
:103E900013961C933296CF01DF91CF911F910F9112
:103EA00008950093E2041093E304F4CF2115310543
:103EB00051F04217530738F0A901DB019A01BD0107
:103EC000DF01F801C1CFEF01F9CF9093E3048093B4
:103ED000E204CDCFFE01E20FF31F819391932250B4
:103EE000310939832883D7CF2091E0043091E10450
:103EF000232B41F420910202309103023093E1041C
:103F00002093E00420910002309101022115310537
:103F100041F42DB73EB74091040250910502241B95
:103F2000350BE091E004F091E104E217F307A0F40F
:103F30002E1B3F0B2817390778F0AC014E5F5F4FFF
:103F40002417350748F04E0F5F1F5093E10440934C
:103F5000E004819391939FCFF0E0E0E09CCFCF937A
:103F6000DF930097E9F0FC01329713821282A0914F
:103F7000E204B091E304ED0130E020E01097A1F4F9
:103F800020813181820F931F2091E0043091E10460
:103F90002817390709F061C0F093E104E093E004C9
:103FA000DF91CF910895EA01CE17DF07E8F54A8146
:103FB0005B819E0141155105B1F7E901FB83EA835D
:103FC00049915991C40FD51FEC17FD0761F4808109
:103FD00091810296840F951FE901998388838281DC
:103FE00093819B838A83F0E0E0E012968D919C910F
:103FF00013970097B9F52D913C911197CD01029639
:10400000820F931F2091E0043091E10428173907B3
:1040100039F6309751F51092E3041092E204B09310
:10402000E104A093E004BCCFD383C28340815181DB
:10403000840F951FC817D90761F44E5F5F4F8881C1
:104040009981480F591F518340838A819B819383B3
:1040500082832115310509F0B0CFF093E304E0939A
:10406000E2049ECFFD01DC01C0CF13821282D7CFC4
:10407000F894FFCF0000E40480005E00BC007701EC
:10408000000000005B07C506F206C307230701070F
:104090001507000000008E0D610DBD0D370D5A0D86
:1040A000470D380D0D0A006E616E00696E66006F77
:1040B00076660053657269616C20436F6E6E65634E
:1040C00074696F6E2045737461626C6973686564AE
:1040D0002E00436F756C646E27742066696E6420D1
:1040E0005254430063757272656E7420686F757206
:1040F0003A200063757272656E74206D696E757416
:04410000653A2000FC
:020000040003F7
:10E000000D9489F10D94B2F10D94B2F10D94B2F129
:10E010000D94B2F10D94B2F10D94B2F10D94B2F1F0
:10E020000D94B2F10D94B2F10D94B2F10D94B2F1E0
:10E030000D94B2F10D94B2F10D94B2F10D94B2F1D0
:10E040000D94B2F10D94B2F10D94B2F10D94B2F1C0
:10E050000D94B2F10D94B2F10D94B2F10D94B2F1B0
:10E060000D94B2F10D94B2F10D94B2F10D94B2F1A0
:10E070000D94B2F10D94B2F10D94B2F10D94B2F190
:10E080000D94B2F10D94B2F10D94B2F10D94B2F180
:10E090000D94B2F10D94B2F10D94B2F10D94B2F170
:10E0A0000D94B2F10D94B2F10D94B2F10D94B2F160
:10E0B0000D94B2F10D94B2F10D94B2F10D94B2F150
:10E0C0000D94B2F10D94B2F10D94B2F10D94B2F140
:10E0D0000D94B2F10D94B2F10D94B2F10D94B2F130
:10E0E0000D94B2F141546D656761323536300041AF
:10E0F000726475696E6F206578706C6F72657220DE
:10E1000073746B3530305632206279204D4C530099
:10E11000426F6F746C6F616465723E004875683F52
:10E1200000436F6D70696C6564206F6E203D200048
:10E130004350552054797065202020203D20005FF9
:10E140005F4156525F415243485F5F3D2000415658
:10E1500052204C696243205665723D20004743437C
:10E160002056657273696F6E203D20004350552024
:10E1700049442020202020203D20004C6F7720663D
:10E18000757365202020203D20004869676820665F
:10E190007573652020203D200045787420667573D6
:10E1A00065202020203D20004C6F636B2066757336
:10E1B000652020203D20004D617220203720323024
:10E1C000313300312E362E3800342E332E350056A2
:10E1D00023202020414444522020206F7020636F70
:10E1E00064652020202020696E73747275637469E1
:10E1F0006F6E2061646472202020496E74657272B3
:10E20000757074006E6F20766563746F7200726A49
:10E210006D702020006A6D70200057686174207056
:10E220006F72743A00506F7274206E6F7420737541
:10E2300070706F72746564004D7573742062652030
:10E2400061206C6574746572002000577269747483
:10E25000696E672045450052656164696E672045B7
:10E26000450045452065727220636E743D00504F35
:10E27000525400303D5A65726F2061646472003FF1
:10E280003D43505520737461747300403D454550C3
:10E29000524F4D207465737400423D426C696E6B41
:10E2A000204C454400453D44756D70204545505215
:10E2B0004F4D00463D44756D7020464C415348001B
:10E2C000483D48656C70004C3D4C69737420492F83
:10E2D0004F20506F72747300513D51756974005234
:10E2E0003D44756D702052414D00563D73686F7707
:10E2F00020696E7465727275707420566563746FF0
:10E30000727300593D506F727420626C696E6B00BD
:10E310002A0011241FBECFEFD1E2DEBFCDBF01E046
:10E320000CBF12E0A0E0B2E0EEE1FDEF03E00BBFB6
:10E3300002C007900D92A030B107D9F712E0A0E01B
:10E34000B2E001C01D92AE30B107E1F70F9460F367
:10E350000D948DFE01E20EBF0FEF0DBF11241FBE05
:10E360000D9460F30D9400F020E030E040ED57E0B4
:10E3700005C0FA013197F1F72F5F3F4F2817390792
:10E38000C0F308959C01260F311DC901A0E0B0E043
:10E390002F5F3F4FABBFFC018791882361F08093D3
:10E3A000C6008091C00086FFFCCF8091C0008064D1
:10E3B0008093C000EACF08958DE08093C6008091DD
:10E3C000C00086FFFCCF8091C00080648093C000B5
:10E3D0008AE08093C6008091C00086FFFCCF8091C8
:10E3E000C00080648093C00008950F94C2F10F9420
:10E3F000DCF10895FC019081992359F09093C600B7
:10E400008091C00086FFFCCF8091C0008064809323
:10E41000C0003196992379F70895282F982F929567
:10E420009F70892F805D8A3308F0895F8093C600D2
:10E430008091C00086FFFCCF8091C00080648093F3
:10E44000C000822F8F70982F905D9A3308F0995FEB
:10E450009093C6008091C00086FFFCCF8091C000E1
:10E4600080648093C00008959C01FB01853691056E
:10E470001CF46330710594F0C90164E670E00F94F8
:10E480002EFE605D7F4F6093C6008091C00086FFC6
:10E49000FCCF8091C00080648093C0002B30310598
:10E4A00014F43297B4F0C90164E670E00F942EFEC4
:10E4B0006AE070E00F942EFE605D7F4F6093C600AF
:10E4C0008091C00086FFFCCF8091C0008064809363
:10E4D000C000C9016AE070E00F942EFEC0968093E0
:10E4E000C6008091C00086FFFCCF8091C000806490
:10E4F0008093C00008951F93182F8EE692EE60E07F
:10E500000F94C2F11093C6008091C00086FFFCCF2B
:10E510008091C00080648093C0000F94DCF11F9153
:10E5200008952F923F924F925F926F927F928F92B7
:10E530009F92AF92BF92CF92DF92EF92FF920F9392
:10E540001F93DF93CF93CDB7DEB762970FB6F894E2
:10E55000DEBF0FBECDBF382E622ECA01DB015C01CB
:10E560006D01772420E2222E2E010894411C511CBB
:10E570008BC081E0A81680E0B80681E0C80680E084
:10E58000D80628F0C601AA27BB270F940DF2BB2797
:10E59000AD2D9C2D8B2D0F940DF28A2D0F940DF225
:10E5A0002092C6008091C00086FFFCCF8091C00001
:10E5B00080648093C0009DE29093C6008091C0006B
:10E5C00086FFFCCF8091C00080648093C0002092C1
:10E5D000C6008091C00086FFFCCF8091C00080649F
:10E5E0008093C00019828601750188249924A1E0D6
:10E5F0003A1651F03A1620F0B2E03B1661F409C029
:10E600000BBFF701779007C0C7010F9477FE782EF4
:10E6100002C0F7017080872D0F940DF22092C60082
:10E620008091C00086FFFCCF8091C0008064809301
:10E63000C000872D8052F401EF70F0708F3520F408
:10E64000E40DF51D708204C0E40DF51D8EE280839B
:10E650000894E11CF11C011D111D0894811C911CE2
:10E6600090E18916910409F0C2CF80E190E0A0E02A
:10E67000B0E0A80EB91ECA1EDB1E198AC2010F9493
:10E68000FAF10F94DCF16A94662009F072CF629679
:10E690000FB6F894DEBF0FBECDBFCF91DF911F91B3
:10E6A0000F91FF90EF90DF90CF90BF90AF909F9031
:10E6B0008F907F906F905F904F903F902F90089534
:10E6C0002F923F924F925F926F927F928F929F9282
:10E6D000AF92BF92CF92DF92EF92FF920F931F9370
:10E6E000DF93CF93CDB7DEB7CD53D1400FB6F894BB
:10E6F000DEBF0FBECDBF01E20EBF0FEF0DBF94B75F
:10E70000F894A89514BE80916000886180936000A1
:10E7100010926000789493FF05C0E0910002F091A0
:10E7200001021995279A2F9A8091C00082608093E8
:10E73000C00080E18093C40088E18093C1000000A4
:10E74000EE24FF24870144E0A42EB12CCC24DD2448
:10E7500024C0C5010197F1F70894E11CF11C011DCB
:10E76000111D21E2E2162EE4F20620E0020720E06D
:10E77000120718F031E0C32ED12CC801B70127ECE5
:10E780003BE140E050E00F9441FE611571058105C9
:10E79000910519F485B1805885B98091C00087FD35
:10E7A00003C0C114D104A9F2A6014F5F5F4FC25E3E
:10E7B000DE4F59834883CE51D140C25EDE4F8881FF
:10E7C0009981CE51D140019711F00D9410FEC05D9A
:10E7D000DE4F19821882C053D14060E0C15DDE4F28
:10E7E0001882CF52D14088249924C35DDE4F19820C
:10E7F0001882CD52D140C05EDE4F188219821A8233
:10E800001B82C052D140CE5CDE4F188219821A8220
:10E810001B82C253D140EE24FF2487010BBFF701B6
:10E8200007911691C45CDE4F19830883CC53D14005
:10E830000D940BFEC25EDE4F28813981CE51D1404E
:10E840002130310509F52091C600C25EDE4F1982E4
:10E850001882CE51D14022C02F5F3F4F4F4F5F4FA4
:10E86000213082E138078AE7480780E0580780F0C6
:10E87000C45CDE4FE881F981CC53D140EF5FFF4F9C
:10E8800019F0EE27FF27099420E030E040E050E047
:10E890008091C00087FFE0CF2091C600C35DDE4FAE
:10E8A00048815981CD52D1404F5F5F4FC35DDE4FEC
:10E8B00059834883CD52D140213209F063C64A3092
:10E8C000510508F05FC60894811C911C53E0851621
:10E8D000910409F059C600E010E018C081E280936D
:10E8E000C6008091C00086FFFCCF8091C00080648C
:10E8F0008093C0002F5F3F4F2931310579F70F9486
:10E90000DCF10F5F1F4F0530110519F020E030E0FA
:10E91000E5CF10920A0210920B0210920C02109294
:10E920000D02109206021092070210920802109235
:10E930000902109202021092030210920402109235
:10E9400005028FEE90EE60E00F94F5F180E191EE1C
:10E9500060E00F94C2F18091C00087FFFCCF9091DE
:10E96000C600903608F09F759032B8F09093C600BC
:10E970008091C00086FFFCCF8091C00080648093AE
:10E98000C000A0E2A093C6008091C00086FFFCCF2B
:10E990008091C00080648093C000983409F4D7C18E
:10E9A0009934B8F4923409F459C1933458F490333B
:10E9B00019F1903308F4E3C59F33A1F1903409F0C5
:10E9C000DEC5BDC0953409F470C1963409F0D7C5D1
:10E9D00098C1923509F42BC2933538F49C3409F46C
:10E9E000F5C1913509F0CBC518C2963509F445C279
:10E9F000993509F0C4C567C483E792EE62E00F94CD
:10EA0000F5F110920602109207021092080210927D
:10EA1000090210920A0210920B0210920C0210923C
:10EA20000D0213C18FE792EE62E00F94F5F18FEEC5
:10EA300090EE60E00F94F5F181E291EE60E00F94CA
:10EA4000C2F187EB91EE60E00F94F5F180E391EE77
:10EA500060E00F94C2F184EE90EE60E00F94F5F167
:10EA60008FE391EE60E00F94C2F186E090E061E008
:10EA700070E00F9434F20F94DCF18DE591EE60E0DC
:10EA80000F94C2F189EC91EE60E00F94F5F18EE401
:10EA900091EE60E00F94C2F183EC91EE60E00F9490
:10EAA000F5F18CE691EE60E00F94C2F18EE10F94E7
:10EAB0000DF288E90F940DF281E00F940DF20F949E
:10EAC000DCF18BE791EE60E00F94C2F119E0E0E039
:10EAD000F0E010935700E4918E2F0F940DF20F94F5
:10EAE000DCF18AE891EE60E00F94C2F1E3E0F0E03F
:10EAF00010935700E4918E2F0F940DF20F94DCF1D8
:10EB000089E991EE60E00F94C2F1E2E0F0E0109349
:10EB10005700E4918E2F0F940DF20F94DCF188EAE8
:10EB200091EE60E00F94C2F1E1E0F0E01093570045
:10EB30001491812F0F940DF20F94DCF107CF8BE825
:10EB400092EE62E00F94F5F18BE492EE60E00F94A8
:10EB5000F5F10F94DCF100E010E019C0C8016F2D51
:10EB60000F947FFEFF2031F489E492EE60E00F9471
:10EB7000C2F10BC0F092C6008091C00086FFFCCFAE
:10EB80008091C00080648093C0000F5F1F4FC80158
:10EB900081519F41A0E0B0E0ABBFFC01F790BAE229
:10EBA000FB1621F0E2E000301E07C1F60F94DCF105
:10EBB0000F94DCF187E592EE60E00F94F5F10F948D
:10EBC000DCF1CC24DD2400E010E01EC0C8010F946D
:10EBD00077FEF82E882331F489E492EE60E00F94FA
:10EBE000C2F10BC08093C6008091C00086FFFCCFAD
:10EBF0008091C00080648093C000FE1419F00894D6
:10EC0000C11CD11C0F5F1F4FC80181519F41A0E063
:10EC1000B0E0ABBFFC01E790FAE2EF1621F022E092
:10EC20000030120799F60F94DCF10F94DCF182E6C4
:10EC300092EE60E00F94C2F1C60161E070E00F94C3
:10EC400034F20F94DCF10F94DCF110920202109276
:10EC50000302109204021092050278CE89E992EE26
:10EC600062E00F94F5F1279A2F9A16C02F9880E052
:10EC700090E0E0EDF7E03197F1F7019684369105E9
:10EC8000C1F72F9A80E090E0E0EDF7E03197F1F7DF
:10EC9000019684369105C1F78091C00087FFE6CFC9
:10ECA0008091C00087FFFCCF64C485EA92EE62E0E9
:10ECB0000F94F5F140910202509103026091040219
:10ECC0007091050281E020E10F9491F2809102029F
:10ECD00090910302A0910402B091050280509F4FD1
:10ECE000AF4FBF4F8093020290930302A0930402A0
:10ECF000B093050280509041A040B04008F426CE69
:10ED0000A4CF83EB92EE62E00F94F5F140910602FE
:10ED100050910702609108027091090280E020E1A1
:10ED20000F9491F28091060290910702A09108023F
:10ED3000B091090280509F4FAF4FBF4F80930602A2
:10ED400090930702A0930802B0930902FFCD80ECD4
:10ED500092EE62E00F94F5F183E792EE60E00F949B
:10ED6000F5F18FE792EE60E00F94F5F18BE892EE0B
:10ED700060E00F94F5F189E992EE60E00F94F5F10F
:10ED800085EA92EE60E00F94F5F183EB92EE60E09D
:10ED90000F94F5F180EC92EE60E00F94F5F187ECC2
:10EDA00092EE60E00F94F5F188ED92EE60E00F9442
:10EDB000F5F18FED92EE60E00F94F5F18AEE92EEB0
:10EDC00060E00F94F5F183E093EEBDCD87EC92EE19
:10EDD00062E00F94F5F181E40F947BF282E40F94EA
:10EDE0007BF283E40F947BF284E40F947BF285E45E
:10EDF0000F947BF286E40F947BF287E40F947BF20E
:10EE000088E40F947BF28AE40F947BF28BE40F94F6
:10EE10007BF28CE40F947BF299CD88ED92EE62E068
:10EE20000F94F5F1772473948824992409C48FED05
:10EE300092EE62E00F94F5F140910A0250910B02BC
:10EE400060910C0270910D0282E020E10F9491F22A
:10EE500080910A0290910B02A0910C02B0910D02D8
:10EE600080509F4FAF4FBF4F80930A0290930B0289
:10EE7000A0930C02B0930D0269CD8AEE92EE62E08F
:10EE80000F94F5F184EE90EE60E00F94F5F18FECC5
:10EE900091EE60E00F94F5F1662477244301CC5D98
:10EEA000DE4F19821882C452D140D401C301B695F5
:10EEB000A79597958795CA5DDE4F88839983AA8326
:10EEC000BB83C652D140CC5DDE4FA881B981C4520C
:10EED000D1401196CC5DDE4FB983A883C452D14096
:10EEE000CD0162E070E00F9434F2B0E2B093C6005E
:10EEF0008091C00086FFFCCF8091C0008064809329
:10EF0000C000EDE2E093C6008091C00086FFFCCF18
:10EF10008091C00080648093C000F0E2F093C6004E
:10EF20008091C00086FFFCCF8091C00080648093F8
:10EF3000C000CA5DDE4FE880F9800A811B81C6529D
:10EF4000D140BB27A12F902F8F2D0F940DF2CA5DBA
:10EF5000DE4F8881C652D1400F940DF2B0E2FB2EF5
:10EF6000F092C6008091C00086FFFCCF8091C00067
:10EF700080648093C0000DE30093C6008091C000C0
:10EF800086FFFCCF8091C00080648093C00010E2B7
:10EF90001093C6008091C00086FFFCCF8091C00016
:10EFA00080648093C0008BBEF3012791C65DDE4F65
:10EFB0002883CA52D140A22EBB24CC24DD2408943D
:10EFC000611C711C811C911C8BBEF3018791282E42
:10EFD0003324442455240894611C711C811C911C09
:10EFE0008BBEF3013791C55DDE4F3883CB52D140E4
:10EFF0000894611C711C811C911C8BBEF30147910C
:10F00000C45DDE4F4883CC52D140ADEFEA2EAFEF66
:10F01000FA2EAFEF0A2FAFEF1A2F6E0C7F1C801E57
:10F02000911E142D032DF22CEE24EA0CFB1C0C1D5A
:10F030001D1D0F940DF220E22093C6008091C000A8
:10F0400086FFFCCF8091C00080648093C000C65DC5
:10F05000DE4F8881CA52D1400F940DF230E23093D6
:10F06000C6008091C00086FFFCCF8091C000806404
:10F070008093C000C45DDE4F8881CC52D1400F9494
:10F080000DF240E24093C6008091C00086FFFCCFA5
:10F090008091C00080648093C000C55DDE4F888190
:10F0A000CB52D1400F940DF250E25093C6008091A4
:10F0B000C00086FFFCCF8091C00080648093C000B8
:10F0C0008FEFE8168FEFF80680E0080780E018075A
:10F0D00031F484E092EE60E00F94C2F1DFC0D80119
:10F0E000C7018070907CA070B0708050904CA040A0
:10F0F000B040D1F52FEF3FE340E050E0E222F322B1
:10F1000004231523CA5DDE4FA880B980CA80DB8046
:10F11000C652D140AE0CBF1CC01ED11EAA0CBB1CD7
:10F12000CC1CDD1C8EE092EE60E00F94C2F1BB2798
:10F13000A12F902F8F2D0F940DF28E2D0F940DF285
:10F1400030E23093C6008091C00086FFFCCF8091F2
:10F15000C00080648093C0004EE34093C60080915D
:10F16000C00086FFFCCF87C08EE09EEFA0E0B0E03D
:10F17000E822F9220A231B239CE0E91694E9F90608
:10F1800090E0090790E0190709F088C0C45DDE4FE0
:10F19000A881CC52D140EA2EFF2400E010E0102FCD
:10F1A0000F2DFE2CEE24C55DDE4FB881CB52D14031
:10F1B000EB0EF11C011D111DD601C501817090706F
:10F1C000A070B070DC0199278827E80EF91E0A1F8D
:10F1D0001B1F20EF30E040E050E0A222B322C42207
:10F1E000D52241E1AA0CBB1CCC1CDD1C4A95D1F7F1
:10F1F000EA0CFB1C0C1D1D1D81E090E0A0E0B0E0BE
:10F20000282239224A225B2235E1220C331C441C7D
:10F21000551C3A95D1F7E20CF31C041D151D57013E
:10F220006801AA0CBB1CCC1CDD1C85E192EE60E0E1
:10F230000F94C2F1C801AA27BB270F940DF2BB2778
:10F24000A12F902F8F2D0F940DF28E2D0F940DF274
:10F2500090E29093C6008091C00086FFFCCF809121
:10F26000C00080648093C000AEE3A093C60080918C
:10F27000C00086FFFCCF8091C00080648093C000F6
:10F28000C601AA27BB270F940DF2BB27AD2D9C2DDD
:10F290008B2D0F940DF28A2D0F940DF20F94DCF14B
:10F2A000CC5DDE4FE881F981C452D140F99709F471
:10F2B0004DCBF4E0EF2EF12C012D112D6E0C7F1CA7
:10F2C000801E911EF2CD83E093EE62E00F94F5F183
:10F2D0008AE192EE60E00F94C2F18091C00087FF56
:10F2E000FCCF1091C6001F751093C6008091C0001E
:10F2F00086FFFCCF8091C00080648093C0000F9493
:10F30000DCF1812F81548A3108F036C1163409F4BA
:10F3100095C0173490F4133409F44EC0143430F40B
:10F320001134F1F0123409F01DC130C0143409F465
:10F3300059C0153409F016C16BC01A3409F4C4C0A1
:10F340001B3438F4173409F48FC0183409F00AC19B
:10F35000A1C01B3409F4D2C01C3409F003C1E8C0B9
:10F360008FEF81B90DC082B1809582B980E090E0C5
:10F37000E0EDF7E03197F1F70196883C9105C1F790
:10F380008091C00087FFEFCF12B8EFC08FEF84B934
:10F390000DC085B1809585B980E090E0E0EDF7E0A3
:10F3A0003197F1F70196883C9105C1F78091C00033
:10F3B00087FFEFCF15B8D9C08FEF87B90DC088B1DF
:10F3C000809588B980E090E0E0EDF7E03197F1F7C3
:10F3D0000196883C9105C1F78091C00087FFEFCF6F
:10F3E00018B8C3C08FEF8AB90DC08BB180958BB9A7
:10F3F00080E090E0E0EDF7E03197F1F70196883C8E
:10F400009105C1F78091C00087FFEFCF1BB8ADC059
:10F410008FEF8DB90DC08EB180958EB980E090E0F0
:10F42000E0EDF7E03197F1F70196883C9105C1F7DF
:10F430008091C00087FFEFCF1EB897C08FEF80BBD1
:10F440000DC081B3809581BB80E090E0E0EDF7E0F6
:10F450003197F1F70196883C9105C1F78091C00082
:10F4600087FFEFCF11BA81C08FEF83BB0DC084B38C
:10F47000809584BB80E090E0E0EDF7E03197F1F714
:10F480000196883C9105C1F78091C00087FFEFCFBE
:10F4900014BA6BC08FEF809301010FC080910201FD
:10F4A00080958093020180E090E0E0EDF7E03197F5
:10F4B000F1F70196883C9105C1F78091C00087FF64
:10F4C000EDCF1092020151C08FEF809304010FC065
:10F4D0008091050180958093050180E090E0E0ED4A
:10F4E000F7E03197F1F70196883C9105C1F78091DB
:10F4F000C00087FFEDCF1092050137C08FEF8093DA
:10F5000007010FC08091080180958093080180E079
:10F5100090E0E0EDF7E03197F1F70196883C910536
:10F52000C1F78091C00087FFEDCF109208011DC088
:10F530008FEF80930A010FC080910B01809580931B
:10F540000B0180E090E0E0EDF7E03197F1F70196F4
:10F55000883C9105C1F78091C00087FFEDCF1092E4
:10F560000B0103C085E292EEEEC98091C00087FFD7
:10F57000FCCF8091C600EAC988E392EEE4C98CE131
:10F5800091EEE1C988249924933011F1943028F444
:10F59000913089F09230B8F408C0953061F195301F
:10F5A000F0F0963009F048C043C02B3109F042C951
:10F5B00091E06BE13FC96227C15DDE4F2883CF52E6
:10F5C000D14092E037C9B22FA0E0622793E032C960
:10F5D000822F90E0A82BB92B622794E02BC92E3004
:10F5E00009F039C3622795E0C05DDE4F19821882A9
:10F5F000C053D1401FC9E1E0F0E0EC0FFD1FC05D3A
:10F60000DE4F08811981C053D140E00FF11F2083E4
:10F610000F5F1F4FC05DDE4F19830883C053D14079
:10F6200062270A171B0709F005C9D80196E002C92D
:10F63000261709F010C303C0973009F0FBC87724E0
:10F640009981933109F412C19431C8F4963009F4C8
:10F65000D8C0973050F4923009F406C1933009F4C1
:10F660006DC0913009F059C253C0913109F477C08F
:10F67000923108F0BBC0903109F04FC2F5C098310B
:10F6800009F487C0993150F4953109F4EFC09531F0
:10F6900008F4C6C1963109F040C2C2C19A3109F4DA
:10F6A0006CC09A3108F491C09B3109F45BC09D3164
:10F6B00009F033C29D81903359F48F81882311F46E
:10F6C0009EE11CC0813011F091E018C098E916C08D
:10F6D000892F807591F0903539F4E0E0F0E089E011
:10F6E0008093570094910AC0983539F4E3E0F0E034
:10F6F00089E080935700949101C090E01A821B82A8
:10F700008D818C831D829E831F8227E030E009C299
:10F710001A8288E08B8381E48C8386E58D8382E581
:10F720008E8389E48F8383E5888780E589878FE5E9
:10F730008A8782E38B872BE030E0F3C18A818139AD
:10F7400041F0823941F0803911F48FE005C080E04A
:10F7500003C082E001C08AE01A828B8344C0772410
:10F76000739482C08D81882311F48EE12CC0813086
:10F7700011F081E028C088E926C01A82E1E0F0E0BB
:10F7800089E08093570084918B831C8224E030E0D1
:10F79000C8C18B81803589F48C81883039F4E2E0EE
:10F7A000F0E089E08093570084910DC0E0E0F0E044
:10F7B00089E080935700849106C0E3E0F0E089E09F
:10F7C0008093570084911A82DFCF8D81836C99E0FA
:10F7D000E1E0F0E0082E90935700E89507B600FCB2
:10F7E000FDCF1A821B8223E030E09BC180EC8A832C
:10F7F000CE5CDE4F188219821A821B82C253D1401E
:10F800008EC18A8190E0A0E0B0E0582F44273327D2
:10F8100022278B8190E0A0E0B0E0DC0199278827C7
:10F82000282B392B4A2B5B2B8D8190E0A0E0B0E098
:10F83000282B392B4A2B5B2B8C8190E0A0E0B0E089
:10F84000BA2FA92F982F8827282B392B4A2B5B2BCF
:10F85000220F331F441F551FC05EDE4F288339839C
:10F860004A835B83C052D1401A8259C13A81C95C34
:10F87000DE4F3883C753D140CA5CDE4F1882C6536F
:10F88000D1408B81C82EDD24CA5CDE4F488159816E
:10F89000C653D140C42AD52A933109F082C0CE5C28
:10F8A000DE4F88819981AA81BB81C253D1408050AB
:10F8B000904CA340B04030F583E0CE5CDE4FE88052
:10F8C000F9800A811B81C253D140F70100935B008C
:10F8D00080935700E89507B600FCFDCFCE5CDE4F65
:10F8E000088119812A813B81C253D14000501F4FAA
:10F8F0002F4F3F4FCE5CDE4F088319832A833B8313
:10F90000C253D140C05EDE4F488159816A817B81FC
:10F91000C052D140DE011B9631E08C9111962C91A2
:10F9200011971296C75CDE4F2883C953D140C85C3B
:10F93000DE4F1882C853D14090E0C85CDE4FE881AA
:10F94000F981C853D1408E2B9F2B0C01FA01609393
:10F950005B0030935700E89511244E5F5F4F6F4F67
:10F960007F4F0EEFE02E0FEFF02ECE0CDF1CC114F8
:10F97000D10499F685E0C05EDE4F088119812A81A5
:10F980003B81C052D140F80120935B008093570027
:10F99000E89507B600FCFDCF81E180935700E8951C
:10F9A00035C0C05EDE4F88819981AA81BB81C0527B
:10F9B000D140B695A795979587957C018601ABE0D8
:10F9C000AA2EB12CAC0EBD1E0BC0D5016D915D01F0
